{
  "contractName": "Marketplace",
  "abi": [
    {
      "inputs": [],
      "stateMutability": "nonpayable",
      "type": "constructor"
    },
    {
      "anonymous": false,
      "inputs": [
        {
          "indexed": true,
          "internalType": "address",
          "name": "account",
          "type": "address"
        },
        {
          "indexed": true,
          "internalType": "address",
          "name": "operator",
          "type": "address"
        },
        {
          "indexed": false,
          "internalType": "bool",
          "name": "approved",
          "type": "bool"
        }
      ],
      "name": "ApprovalForAll",
      "type": "event"
    },
    {
      "anonymous": false,
      "inputs": [
        {
          "indexed": true,
          "internalType": "address",
          "name": "user",
          "type": "address"
        },
        {
          "indexed": false,
          "internalType": "uint256",
          "name": "amount",
          "type": "uint256"
        },
        {
          "indexed": false,
          "internalType": "uint256",
          "name": "index",
          "type": "uint256"
        },
        {
          "indexed": false,
          "internalType": "uint256",
          "name": "timestamp",
          "type": "uint256"
        }
      ],
      "name": "Staked",
      "type": "event"
    },
    {
      "anonymous": false,
      "inputs": [
        {
          "indexed": true,
          "internalType": "address",
          "name": "operator",
          "type": "address"
        },
        {
          "indexed": true,
          "internalType": "address",
          "name": "from",
          "type": "address"
        },
        {
          "indexed": true,
          "internalType": "address",
          "name": "to",
          "type": "address"
        },
        {
          "indexed": false,
          "internalType": "uint256[]",
          "name": "ids",
          "type": "uint256[]"
        },
        {
          "indexed": false,
          "internalType": "uint256[]",
          "name": "values",
          "type": "uint256[]"
        }
      ],
      "name": "TransferBatch",
      "type": "event"
    },
    {
      "anonymous": false,
      "inputs": [
        {
          "indexed": true,
          "internalType": "address",
          "name": "operator",
          "type": "address"
        },
        {
          "indexed": true,
          "internalType": "address",
          "name": "from",
          "type": "address"
        },
        {
          "indexed": true,
          "internalType": "address",
          "name": "to",
          "type": "address"
        },
        {
          "indexed": false,
          "internalType": "uint256",
          "name": "id",
          "type": "uint256"
        },
        {
          "indexed": false,
          "internalType": "uint256",
          "name": "value",
          "type": "uint256"
        }
      ],
      "name": "TransferSingle",
      "type": "event"
    },
    {
      "anonymous": false,
      "inputs": [
        {
          "indexed": false,
          "internalType": "string",
          "name": "value",
          "type": "string"
        },
        {
          "indexed": true,
          "internalType": "uint256",
          "name": "id",
          "type": "uint256"
        }
      ],
      "name": "URI",
      "type": "event"
    },
    {
      "anonymous": false,
      "inputs": [
        {
          "indexed": false,
          "internalType": "uint256",
          "name": "receiptId",
          "type": "uint256"
        },
        {
          "indexed": false,
          "internalType": "uint256",
          "name": "productId",
          "type": "uint256"
        },
        {
          "indexed": false,
          "internalType": "uint256",
          "name": "quantity",
          "type": "uint256"
        },
        {
          "indexed": false,
          "internalType": "uint256",
          "name": "totalCost",
          "type": "uint256"
        },
        {
          "indexed": false,
          "internalType": "address",
          "name": "buyer",
          "type": "address"
        },
        {
          "indexed": false,
          "internalType": "address",
          "name": "seller",
          "type": "address"
        }
      ],
      "name": "newOrder",
      "type": "event"
    },
    {
      "anonymous": false,
      "inputs": [
        {
          "indexed": false,
          "internalType": "uint256",
          "name": "productId",
          "type": "uint256"
        },
        {
          "indexed": false,
          "internalType": "string",
          "name": "name",
          "type": "string"
        },
        {
          "indexed": false,
          "internalType": "uint256",
          "name": "price",
          "type": "uint256"
        },
        {
          "indexed": false,
          "internalType": "uint256",
          "name": "quantity",
          "type": "uint256"
        },
        {
          "indexed": false,
          "internalType": "address",
          "name": "seller",
          "type": "address"
        }
      ],
      "name": "newProduct",
      "type": "event"
    },
    {
      "inputs": [],
      "name": "Admin",
      "outputs": [
        {
          "internalType": "address payable",
          "name": "",
          "type": "address"
        }
      ],
      "stateMutability": "view",
      "type": "function",
      "constant": true
    },
    {
      "inputs": [],
      "name": "Owner",
      "outputs": [
        {
          "internalType": "address payable",
          "name": "",
          "type": "address"
        }
      ],
      "stateMutability": "view",
      "type": "function",
      "constant": true
    },
    {
      "inputs": [
        {
          "internalType": "uint256",
          "name": "",
          "type": "uint256"
        }
      ],
      "name": "Products",
      "outputs": [
        {
          "internalType": "string",
          "name": "name",
          "type": "string"
        },
        {
          "internalType": "uint256",
          "name": "price",
          "type": "uint256"
        },
        {
          "internalType": "uint256",
          "name": "quantity",
          "type": "uint256"
        },
        {
          "internalType": "address payable",
          "name": "seller",
          "type": "address"
        }
      ],
      "stateMutability": "view",
      "type": "function",
      "constant": true
    },
    {
      "inputs": [
        {
          "internalType": "uint256",
          "name": "",
          "type": "uint256"
        }
      ],
      "name": "Receipts",
      "outputs": [
        {
          "internalType": "uint256",
          "name": "productId",
          "type": "uint256"
        },
        {
          "internalType": "uint256",
          "name": "quantity",
          "type": "uint256"
        },
        {
          "internalType": "uint256",
          "name": "totalCost",
          "type": "uint256"
        },
        {
          "internalType": "address payable",
          "name": "buyer",
          "type": "address"
        },
        {
          "internalType": "address payable",
          "name": "seller",
          "type": "address"
        }
      ],
      "stateMutability": "view",
      "type": "function",
      "constant": true
    },
    {
      "inputs": [],
      "name": "Stake",
      "outputs": [],
      "stateMutability": "payable",
      "type": "function",
      "payable": true
    },
    {
      "inputs": [
        {
          "internalType": "address",
          "name": "account",
          "type": "address"
        },
        {
          "internalType": "uint256",
          "name": "id",
          "type": "uint256"
        }
      ],
      "name": "balanceOf",
      "outputs": [
        {
          "internalType": "uint256",
          "name": "",
          "type": "uint256"
        }
      ],
      "stateMutability": "view",
      "type": "function",
      "constant": true
    },
    {
      "inputs": [
        {
          "internalType": "address[]",
          "name": "accounts",
          "type": "address[]"
        },
        {
          "internalType": "uint256[]",
          "name": "ids",
          "type": "uint256[]"
        }
      ],
      "name": "balanceOfBatch",
      "outputs": [
        {
          "internalType": "uint256[]",
          "name": "",
          "type": "uint256[]"
        }
      ],
      "stateMutability": "view",
      "type": "function",
      "constant": true
    },
    {
      "inputs": [
        {
          "internalType": "address",
          "name": "account",
          "type": "address"
        },
        {
          "internalType": "uint256",
          "name": "id",
          "type": "uint256"
        },
        {
          "internalType": "uint256",
          "name": "amount",
          "type": "uint256"
        }
      ],
      "name": "burnNFT",
      "outputs": [],
      "stateMutability": "nonpayable",
      "type": "function"
    },
    {
      "inputs": [],
      "name": "buyerReceipt",
      "outputs": [
        {
          "internalType": "uint256",
          "name": "",
          "type": "uint256"
        }
      ],
      "stateMutability": "view",
      "type": "function",
      "constant": true
    },
    {
      "inputs": [
        {
          "internalType": "address",
          "name": "account",
          "type": "address"
        },
        {
          "internalType": "address",
          "name": "operator",
          "type": "address"
        }
      ],
      "name": "isApprovedForAll",
      "outputs": [
        {
          "internalType": "bool",
          "name": "",
          "type": "bool"
        }
      ],
      "stateMutability": "view",
      "type": "function",
      "constant": true
    },
    {
      "inputs": [
        {
          "internalType": "address",
          "name": "account",
          "type": "address"
        },
        {
          "internalType": "bytes",
          "name": "description",
          "type": "bytes"
        }
      ],
      "name": "mintNFT",
      "outputs": [],
      "stateMutability": "nonpayable",
      "type": "function"
    },
    {
      "inputs": [],
      "name": "productId",
      "outputs": [
        {
          "internalType": "uint256",
          "name": "",
          "type": "uint256"
        }
      ],
      "stateMutability": "view",
      "type": "function",
      "constant": true
    },
    {
      "inputs": [],
      "name": "receiptId",
      "outputs": [
        {
          "internalType": "uint256",
          "name": "",
          "type": "uint256"
        }
      ],
      "stateMutability": "view",
      "type": "function",
      "constant": true
    },
    {
      "inputs": [
        {
          "internalType": "address",
          "name": "from",
          "type": "address"
        },
        {
          "internalType": "address",
          "name": "to",
          "type": "address"
        },
        {
          "internalType": "uint256[]",
          "name": "ids",
          "type": "uint256[]"
        },
        {
          "internalType": "uint256[]",
          "name": "amounts",
          "type": "uint256[]"
        },
        {
          "internalType": "bytes",
          "name": "data",
          "type": "bytes"
        }
      ],
      "name": "safeBatchTransferFrom",
      "outputs": [],
      "stateMutability": "nonpayable",
      "type": "function"
    },
    {
      "inputs": [
        {
          "internalType": "address",
          "name": "from",
          "type": "address"
        },
        {
          "internalType": "address",
          "name": "to",
          "type": "address"
        },
        {
          "internalType": "uint256",
          "name": "id",
          "type": "uint256"
        },
        {
          "internalType": "uint256",
          "name": "amount",
          "type": "uint256"
        },
        {
          "internalType": "bytes",
          "name": "data",
          "type": "bytes"
        }
      ],
      "name": "safeTransferFrom",
      "outputs": [],
      "stateMutability": "nonpayable",
      "type": "function"
    },
    {
      "inputs": [],
      "name": "sellerReceipt",
      "outputs": [
        {
          "internalType": "uint256",
          "name": "",
          "type": "uint256"
        }
      ],
      "stateMutability": "view",
      "type": "function",
      "constant": true
    },
    {
      "inputs": [
        {
          "internalType": "address",
          "name": "operator",
          "type": "address"
        },
        {
          "internalType": "bool",
          "name": "approved",
          "type": "bool"
        }
      ],
      "name": "setApprovalForAll",
      "outputs": [],
      "stateMutability": "nonpayable",
      "type": "function"
    },
    {
      "inputs": [
        {
          "internalType": "bytes4",
          "name": "interfaceId",
          "type": "bytes4"
        }
      ],
      "name": "supportsInterface",
      "outputs": [
        {
          "internalType": "bool",
          "name": "",
          "type": "bool"
        }
      ],
      "stateMutability": "view",
      "type": "function",
      "constant": true
    },
    {
      "inputs": [
        {
          "internalType": "uint256",
          "name": "",
          "type": "uint256"
        }
      ],
      "name": "uri",
      "outputs": [
        {
          "internalType": "string",
          "name": "",
          "type": "string"
        }
      ],
      "stateMutability": "view",
      "type": "function",
      "constant": true
    },
    {
      "inputs": [
        {
          "internalType": "string",
          "name": "_name",
          "type": "string"
        },
        {
          "internalType": "uint256",
          "name": "_price",
          "type": "uint256"
        },
        {
          "internalType": "uint256",
          "name": "_quantity",
          "type": "uint256"
        }
      ],
      "name": "listItem",
      "outputs": [],
      "stateMutability": "payable",
      "type": "function",
      "payable": true
    },
    {
      "inputs": [
        {
          "internalType": "uint256",
          "name": "_productId",
          "type": "uint256"
        },
        {
          "internalType": "uint256",
          "name": "_quantity",
          "type": "uint256"
        }
      ],
      "name": "buy",
      "outputs": [],
      "stateMutability": "payable",
      "type": "function",
      "payable": true
    },
    {
      "inputs": [
        {
          "internalType": "uint256",
          "name": "_receiptId",
          "type": "uint256"
        }
      ],
      "name": "orderAccept",
      "outputs": [],
      "stateMutability": "payable",
      "type": "function",
      "payable": true
    },
    {
      "inputs": [
        {
          "internalType": "uint256",
          "name": "_receiptId",
          "type": "uint256"
        }
      ],
      "name": "orderReject",
      "outputs": [],
      "stateMutability": "payable",
      "type": "function",
      "payable": true
    },
    {
      "inputs": [
        {
          "internalType": "uint256",
          "name": "_receiptId",
          "type": "uint256"
        }
      ],
      "name": "itemDelivered",
      "outputs": [],
      "stateMutability": "nonpayable",
      "type": "function"
    },
    {
      "inputs": [
        {
          "internalType": "uint256",
          "name": "_receiptId",
          "type": "uint256"
        }
      ],
      "name": "dispute",
      "outputs": [],
      "stateMutability": "payable",
      "type": "function",
      "payable": true
    },
    {
      "inputs": [
        {
          "internalType": "uint256",
          "name": "_receiptId",
          "type": "uint256"
        },
        {
          "internalType": "address payable",
          "name": "_justice",
          "type": "address"
        }
      ],
      "name": "resolve",
      "outputs": [],
      "stateMutability": "payable",
      "type": "function",
      "payable": true
    }
  ],
  "bytecode": "0x608060405261dead600460006101000a81548173ffffffffffffffffffffffffffffffffffffffff021916908373ffffffffffffffffffffffffffffffffffffffff16021790555061dead600f60006101000a81548173ffffffffffffffffffffffffffffffffffffffff021916908373ffffffffffffffffffffffffffffffffffffffff1602179055503480156200009757600080fd5b506040518060600160405280602e815260200162005bbe602e9139620000c3816200052f60201b60201c565b5060086040518060600160405280600460009054906101000a900473ffffffffffffffffffffffffffffffffffffffff1673ffffffffffffffffffffffffffffffffffffffff1681526020016000815260200142815250908060018154018082558091505060019003906000526020600020906003020160009091909190915060008201518160000160006101000a81548173ffffffffffffffffffffffffffffffffffffffff021916908373ffffffffffffffffffffffffffffffffffffffff1602179055506020820151816001015560408201518160020155505033600560006101000a81548173ffffffffffffffffffffffffffffffffffffffff021916908373ffffffffffffffffffffffffffffffffffffffff16021790555033600a60006101000a81548173ffffffffffffffffffffffffffffffffffffffff021916908373ffffffffffffffffffffffffffffffffffffffff16021790555060106040518060a00160405280600081526020016000815260200160008152602001600f60009054906101000a900473ffffffffffffffffffffffffffffffffffffffff1673ffffffffffffffffffffffffffffffffffffffff168152602001600f60009054906101000a900473ffffffffffffffffffffffffffffffffffffffff1673ffffffffffffffffffffffffffffffffffffffff16815250908060018154018082558091505060019003906000526020600020906005020160009091909190915060008201518160000155602082015181600101556040820151816002015560608201518160030160006101000a81548173ffffffffffffffffffffffffffffffffffffffff021916908373ffffffffffffffffffffffffffffffffffffffff16021790555060808201518160040160006101000a81548173ffffffffffffffffffffffffffffffffffffffff021916908373ffffffffffffffffffffffffffffffffffffffff160217905550505060116040518060800160405280600b8054620003b190620005fb565b80601f0160208091040260200160405190810160405280929190818152602001828054620003df90620005fb565b8015620004305780601f10620004045761010080835404028352916020019162000430565b820191906000526020600020905b8154815290600101906020018083116200041257829003601f168201915b505050505081526020016000815260200160008152602001600f60009054906101000a900473ffffffffffffffffffffffffffffffffffffffff1673ffffffffffffffffffffffffffffffffffffffff1681525090806001815401808255809150506001900390600052602060002090600402016000909190919091506000820151816000019080519060200190620004cb9291906200054b565b50602082015181600101556040820151816002015560608201518160030160006101000a81548173ffffffffffffffffffffffffffffffffffffffff021916908373ffffffffffffffffffffffffffffffffffffffff160217905550505062000660565b8060029080519060200190620005479291906200054b565b5050565b8280546200055990620005fb565b90600052602060002090601f0160209004810192826200057d5760008555620005c9565b82601f106200059857805160ff1916838001178555620005c9565b82800160010185558215620005c9579182015b82811115620005c8578251825591602001919060010190620005ab565b5b509050620005d89190620005dc565b5090565b5b80821115620005f7576000816000905550600101620005dd565b5090565b600060028204905060018216806200061457607f821691505b602082108114156200062b576200062a62000631565b5b50919050565b7f4e487b7100000000000000000000000000000000000000000000000000000000600052602260045260246000fd5b61554e80620006706000396000f3fe6080604052600436106101805760003560e01c8063a22cb465116100d1578063dba3f6aa1161008a578063e985e9c511610064578063e985e9c514610534578063f176627914610571578063f242432a1461058d578063ff1b636d146105b657610180565b8063dba3f6aa146104c1578063de20bc9214610501578063e83b02271461050b57610180565b8063a22cb465146103e1578063af0d467b1461040a578063b4a99a4e14610426578063c5ce391114610451578063cef4c9b41461047c578063d6febde8146104a557610180565b80631cc509fd1161013e578063667aa60611610118578063667aa6061461033d57806371b1b9971461035957806381fca9991461039a57806386d6282c146103c557610180565b80631cc509fd146102ae5780632eb2c2d6146102d75780634e1273f41461030057610180565b8062fdd58e1461018557806301ffc9a7146101c2578063044fbeac146101ff5780630e89341c1461022a5780631352c70b146102675780631775ec8414610283575b600080fd5b34801561019157600080fd5b506101ac60048036038101906101a79190613b63565b6105e1565b6040516101b99190614748565b60405180910390f35b3480156101ce57600080fd5b506101e960048036038101906101e49190613c5a565b6106aa565b6040516101f691906143ff565b60405180910390f35b34801561020b57600080fd5b5061021461078c565b6040516102219190614748565b60405180910390f35b34801561023657600080fd5b50610251600480360381019061024c9190613d13565b610791565b60405161025e919061441a565b60405180910390f35b610281600480360381019061027c9190613d13565b610825565b005b34801561028f57600080fd5b50610298610a51565b6040516102a59190614748565b60405180910390f35b3480156102ba57600080fd5b506102d560048036038101906102d09190613b9f565b610a57565b005b3480156102e357600080fd5b506102fe60048036038101906102f99190613985565b610a9f565b005b34801561030c57600080fd5b5061032760048036038101906103229190613bee565b610b40565b60405161033491906143a6565b60405180910390f35b61035760048036038101906103529190613d13565b610cf1565b005b34801561036557600080fd5b50610380600480360381019061037b9190613d13565b610e20565b60405161039195949392919061481d565b60405180910390f35b3480156103a657600080fd5b506103af610ea6565b6040516103bc9190614748565b60405180910390f35b6103df60048036038101906103da9190613d13565b610eab565b005b3480156103ed57600080fd5b5061040860048036038101906104039190613ad3565b611043565b005b610424600480360381019061041f9190613d3c565b6111c4565b005b34801561043257600080fd5b5061043b611525565b60405161044891906142c9565b60405180910390f35b34801561045d57600080fd5b5061046661154b565b6040516104739190614748565b60405180910390f35b34801561048857600080fd5b506104a3600480360381019061049e9190613d13565b611551565b005b6104bf60048036038101906104ba9190613d78565b61199c565b005b3480156104cd57600080fd5b506104e860048036038101906104e39190613d13565b612088565b6040516104f8949392919061443c565b60405180910390f35b610509612170565b005b34801561051757600080fd5b50610532600480360381019061052d9190613b0f565b61234a565b005b34801561054057600080fd5b5061055b60048036038101906105569190613949565b61235c565b60405161056891906143ff565b60405180910390f35b61058b60048036038101906105869190613cac565b6123f0565b005b34801561059957600080fd5b506105b460048036038101906105af9190613a44565b6126af565b005b3480156105c257600080fd5b506105cb612750565b6040516105d891906142c9565b60405180910390f35b60008073ffffffffffffffffffffffffffffffffffffffff168373ffffffffffffffffffffffffffffffffffffffff161415610652576040517f08c379a000000000000000000000000000000000000000000000000000000000815260040161064990614528565b60405180910390fd5b60008083815260200190815260200160002060008473ffffffffffffffffffffffffffffffffffffffff1673ffffffffffffffffffffffffffffffffffffffff16815260200190815260200160002054905092915050565b60007fd9b67a26000000000000000000000000000000000000000000000000000000007bffffffffffffffffffffffffffffffffffffffffffffffffffffffff1916827bffffffffffffffffffffffffffffffffffffffffffffffffffffffff1916148061077557507f0e89341c000000000000000000000000000000000000000000000000000000007bffffffffffffffffffffffffffffffffffffffffffffffffffffffff1916827bffffffffffffffffffffffffffffffffffffffffffffffffffffffff1916145b80610785575061078482612776565b5b9050919050565b600081565b6060600280546107a090614c03565b80601f01602080910402602001604051908101604052809291908181526020018280546107cc90614c03565b80156108195780601f106107ee57610100808354040283529160200191610819565b820191906000526020600020905b8154815290600101906020018083116107fc57829003601f168201915b50505050509050919050565b803373ffffffffffffffffffffffffffffffffffffffff1660108281548110610877577f4e487b7100000000000000000000000000000000000000000000000000000000600052603260045260246000fd5b906000526020600020906005020160040160009054906101000a900473ffffffffffffffffffffffffffffffffffffffff1673ffffffffffffffffffffffffffffffffffffffff16146108ff576040517f08c379a00000000000000000000000000000000000000000000000000000000081526004016108f690614508565b60405180910390fd5b6001600c60006101000a81548160ff0219169083600481111561094b577f4e487b7100000000000000000000000000000000000000000000000000000000600052602160045260246000fd5b02179055506010828154811061098a577f4e487b7100000000000000000000000000000000000000000000000000000000600052603260045260246000fd5b906000526020600020906005020160030160009054906101000a900473ffffffffffffffffffffffffffffffffffffffff1673ffffffffffffffffffffffffffffffffffffffff166108fc60108481548110610a0f577f4e487b7100000000000000000000000000000000000000000000000000000000600052603260045260246000fd5b9060005260206000209060050201600201549081150290604051600060405180830381858888f19350505050158015610a4c573d6000803e3d6000fd5b505050565b600d5481565b8273ffffffffffffffffffffffffffffffffffffffff163373ffffffffffffffffffffffffffffffffffffffff1614610a8f57600080fd5b610a9a8383836127e0565b505050565b610aa76129fd565b73ffffffffffffffffffffffffffffffffffffffff168573ffffffffffffffffffffffffffffffffffffffff161480610aed5750610aec85610ae76129fd565b61235c565b5b610b2c576040517f08c379a0000000000000000000000000000000000000000000000000000000008152600401610b2390614608565b60405180910390fd5b610b398585858585612a05565b5050505050565b60608151835114610b86576040517f08c379a0000000000000000000000000000000000000000000000000000000008152600401610b7d906146c8565b60405180910390fd5b6000835167ffffffffffffffff811115610bc9577f4e487b7100000000000000000000000000000000000000000000000000000000600052604160045260246000fd5b604051908082528060200260200182016040528015610bf75781602001602082028036833780820191505090505b50905060005b8451811015610ce657610c90858281518110610c42577f4e487b7100000000000000000000000000000000000000000000000000000000600052603260045260246000fd5b6020026020010151858381518110610c83577f4e487b7100000000000000000000000000000000000000000000000000000000600052603260045260246000fd5b60200260200101516105e1565b828281518110610cc9577f4e487b7100000000000000000000000000000000000000000000000000000000600052603260045260246000fd5b60200260200101818152505080610cdf90614c66565b9050610bfd565b508091505092915050565b803373ffffffffffffffffffffffffffffffffffffffff1660108281548110610d43577f4e487b7100000000000000000000000000000000000000000000000000000000600052603260045260246000fd5b906000526020600020906005020160040160009054906101000a900473ffffffffffffffffffffffffffffffffffffffff1673ffffffffffffffffffffffffffffffffffffffff1614610dcb576040517f08c379a0000000000000000000000000000000000000000000000000000000008152600401610dc290614508565b60405180910390fd5b6002600c60006101000a81548160ff02191690836004811115610e17577f4e487b7100000000000000000000000000000000000000000000000000000000600052602160045260246000fd5b02179055505050565b60108181548110610e3057600080fd5b90600052602060002090600502016000915090508060000154908060010154908060020154908060030160009054906101000a900473ffffffffffffffffffffffffffffffffffffffff16908060040160009054906101000a900473ffffffffffffffffffffffffffffffffffffffff16905085565b600181565b60108181548110610ee5577f4e487b7100000000000000000000000000000000000000000000000000000000600052603260045260246000fd5b906000526020600020906005020160030160009054906101000a900473ffffffffffffffffffffffffffffffffffffffff1673ffffffffffffffffffffffffffffffffffffffff163373ffffffffffffffffffffffffffffffffffffffff161480610fe6575060108181548110610f85577f4e487b7100000000000000000000000000000000000000000000000000000000600052603260045260246000fd5b906000526020600020906005020160040160009054906101000a900473ffffffffffffffffffffffffffffffffffffffff1673ffffffffffffffffffffffffffffffffffffffff163373ffffffffffffffffffffffffffffffffffffffff16145b610fef57600080fd5b6004600c60006101000a81548160ff0219169083600481111561103b577f4e487b7100000000000000000000000000000000000000000000000000000000600052602160045260246000fd5b021790555050565b8173ffffffffffffffffffffffffffffffffffffffff166110626129fd565b73ffffffffffffffffffffffffffffffffffffffff1614156110b9576040517f08c379a00000000000000000000000000000000000000000000000000000000081526004016110b0906146a8565b60405180910390fd5b80600160006110c66129fd565b73ffffffffffffffffffffffffffffffffffffffff1673ffffffffffffffffffffffffffffffffffffffff16815260200190815260200160002060008473ffffffffffffffffffffffffffffffffffffffff1673ffffffffffffffffffffffffffffffffffffffff16815260200190815260200160002060006101000a81548160ff0219169083151502179055508173ffffffffffffffffffffffffffffffffffffffff166111736129fd565b73ffffffffffffffffffffffffffffffffffffffff167f17307eab39ab6107e8899845ad3d59bd9653f200f220920489ca2b5937696c31836040516111b891906143ff565b60405180910390a35050565b600a60009054906101000a900473ffffffffffffffffffffffffffffffffffffffff1673ffffffffffffffffffffffffffffffffffffffff163373ffffffffffffffffffffffffffffffffffffffff1614611254576040517f08c379a000000000000000000000000000000000000000000000000000000000815260040161124b906145a8565b60405180910390fd5b6010828154811061128e577f4e487b7100000000000000000000000000000000000000000000000000000000600052603260045260246000fd5b906000526020600020906005020160030160009054906101000a900473ffffffffffffffffffffffffffffffffffffffff1673ffffffffffffffffffffffffffffffffffffffff168173ffffffffffffffffffffffffffffffffffffffff16148061138f57506010828154811061132e577f4e487b7100000000000000000000000000000000000000000000000000000000600052603260045260246000fd5b906000526020600020906005020160040160009054906101000a900473ffffffffffffffffffffffffffffffffffffffff1673ffffffffffffffffffffffffffffffffffffffff168173ffffffffffffffffffffffffffffffffffffffff16145b6113ce576040517f08c379a00000000000000000000000000000000000000000000000000000000081526004016113c5906144e8565b60405180910390fd5b600480811115611407577f4e487b7100000000000000000000000000000000000000000000000000000000600052602160045260246000fd5b600c60009054906101000a900460ff16600481111561144f577f4e487b7100000000000000000000000000000000000000000000000000000000600052602160045260246000fd5b1461148f576040517f08c379a000000000000000000000000000000000000000000000000000000000815260040161148690614588565b60405180910390fd5b8073ffffffffffffffffffffffffffffffffffffffff166108fc601084815481106114e3577f4e487b7100000000000000000000000000000000000000000000000000000000600052603260045260246000fd5b9060005260206000209060050201600201549081150290604051600060405180830381858888f19350505050158015611520573d6000803e3d6000fd5b505050565b600a60009054906101000a900473ffffffffffffffffffffffffffffffffffffffff1681565b600e5481565b803373ffffffffffffffffffffffffffffffffffffffff16601082815481106115a3577f4e487b7100000000000000000000000000000000000000000000000000000000600052603260045260246000fd5b906000526020600020906005020160030160009054906101000a900473ffffffffffffffffffffffffffffffffffffffff1673ffffffffffffffffffffffffffffffffffffffff161461162b576040517f08c379a000000000000000000000000000000000000000000000000000000000815260040161162290614688565b60405180910390fd5b60108281548110611665577f4e487b7100000000000000000000000000000000000000000000000000000000600052603260045260246000fd5b906000526020600020906005020160040160009054906101000a900473ffffffffffffffffffffffffffffffffffffffff1673ffffffffffffffffffffffffffffffffffffffff166108fc601084815481106116ea577f4e487b7100000000000000000000000000000000000000000000000000000000600052603260045260246000fd5b9060005260206000209060050201600201549081150290604051600060405180830381858888f19350505050158015611727573d6000803e3d6000fd5b50600042834460108681548110611767577f4e487b7100000000000000000000000000000000000000000000000000000000600052603260045260246000fd5b906000526020600020906005020160000154601087815481106117b3577f4e487b7100000000000000000000000000000000000000000000000000000000600052603260045260246000fd5b906000526020600020906005020160010154601088815481106117ff577f4e487b7100000000000000000000000000000000000000000000000000000000600052603260045260246000fd5b9060005260206000209060050201600201546010898154811061184b577f4e487b7100000000000000000000000000000000000000000000000000000000600052603260045260246000fd5b906000526020600020906005020160030160009054906101000a900473ffffffffffffffffffffffffffffffffffffffff1660108a815481106118b7577f4e487b7100000000000000000000000000000000000000000000000000000000600052603260045260246000fd5b906000526020600020906005020160040160009054906101000a900473ffffffffffffffffffffffffffffffffffffffff1660108054905060405160200161190799989796959493929190614226565b6040516020818303038152906040529050611922338261234a565b6119976010848154811061195f577f4e487b7100000000000000000000000000000000000000000000000000000000600052603260045260246000fd5b906000526020600020906005020160040160009054906101000a900473ffffffffffffffffffffffffffffffffffffffff168261234a565b505050565b81601181815481106119d7577f4e487b7100000000000000000000000000000000000000000000000000000000600052603260045260246000fd5b906000526020600020906004020160030160009054906101000a900473ffffffffffffffffffffffffffffffffffffffff1673ffffffffffffffffffffffffffffffffffffffff163373ffffffffffffffffffffffffffffffffffffffff161415611a77576040517f08c379a0000000000000000000000000000000000000000000000000000000008152600401611a6e90614628565b60405180910390fd5b60118381548110611ab1577f4e487b7100000000000000000000000000000000000000000000000000000000600052603260045260246000fd5b906000526020600020906004020160010154828082611ad09190614a77565b3414611b11576040517f08c379a0000000000000000000000000000000000000000000000000000000008152600401611b08906144a8565b60405180910390fd5b6000600190505b600880549050811015611bec573373ffffffffffffffffffffffffffffffffffffffff1660088281548110611b76577f4e487b7100000000000000000000000000000000000000000000000000000000600052603260045260246000fd5b906000526020600020906003020160000160009054906101000a900473ffffffffffffffffffffffffffffffffffffffff1673ffffffffffffffffffffffffffffffffffffffff161415611bd05780600781905550611bd9565b60006007819055505b8080611be490614c66565b915050611b18565b5060006007541415611c33576040517f08c379a0000000000000000000000000000000000000000000000000000000008152600401611c2a90614728565b60405180910390fd5b60006001811115611c6d577f4e487b7100000000000000000000000000000000000000000000000000000000600052602160045260246000fd5b600a60149054906101000a900460ff166001811115611cb5577f4e487b7100000000000000000000000000000000000000000000000000000000600052602160045260246000fd5b14611cbf57600080fd5b8360118681548110611cfa577f4e487b7100000000000000000000000000000000000000000000000000000000600052603260045260246000fd5b90600052602060002090600402016002016000828254611d1a9190614ad1565b925050819055506000600c60006101000a81548160ff02191690836004811115611d6d577f4e487b7100000000000000000000000000000000000000000000000000000000600052602160045260246000fd5b021790555060008460118781548110611daf577f4e487b7100000000000000000000000000000000000000000000000000000000600052603260045260246000fd5b906000526020600020906004020160010154611dcb9190614a77565b9050600d6000815480929190611de090614c66565b919050555060106040518060a001604052808881526020018781526020018381526020013373ffffffffffffffffffffffffffffffffffffffff16815260200160118981548110611e5a577f4e487b7100000000000000000000000000000000000000000000000000000000600052603260045260246000fd5b906000526020600020906004020160030160009054906101000a900473ffffffffffffffffffffffffffffffffffffffff1673ffffffffffffffffffffffffffffffffffffffff16815250908060018154018082558091505060019003906000526020600020906005020160009091909190915060008201518160000155602082015181600101556040820151816002015560608201518160030160006101000a81548173ffffffffffffffffffffffffffffffffffffffff021916908373ffffffffffffffffffffffffffffffffffffffff16021790555060808201518160040160006101000a81548173ffffffffffffffffffffffffffffffffffffffff021916908373ffffffffffffffffffffffffffffffffffffffff16021790555050507fc64d33f374321e1b83fae29f825885f9a615007c6cb350128682cfcdcd5633a7600d5487878860118b81548110611fdd577f4e487b7100000000000000000000000000000000000000000000000000000000600052603260045260246000fd5b906000526020600020906004020160010154611ff99190614a77565b3360118c81548110612034577f4e487b7100000000000000000000000000000000000000000000000000000000600052603260045260246000fd5b906000526020600020906004020160030160009054906101000a900473ffffffffffffffffffffffffffffffffffffffff1660405161207896959493929190614870565b60405180910390a1505050505050565b6011818154811061209857600080fd5b90600052602060002090600402016000915090508060000180546120bb90614c03565b80601f01602080910402602001604051908101604052809291908181526020018280546120e790614c03565b80156121345780601f1061210957610100808354040283529160200191612134565b820191906000526020600020905b81548152906001019060200180831161211757829003601f168201915b5050505050908060010154908060020154908060030160009054906101000a900473ffffffffffffffffffffffffffffffffffffffff16905084565b66b1a2bc2ec500003410156121ba576040517f08c379a00000000000000000000000000000000000000000000000000000000081526004016121b1906145c8565b60405180910390fd5b600660008154809291906121cd90614c66565b9190505550600860405180606001604052803373ffffffffffffffffffffffffffffffffffffffff16815260200134815260200142815250908060018154018082558091505060019003906000526020600020906003020160009091909190915060008201518160000160006101000a81548173ffffffffffffffffffffffffffffffffffffffff021916908373ffffffffffffffffffffffffffffffffffffffff160217905550602082015181600101556040820151816002015550503373ffffffffffffffffffffffffffffffffffffffff167fb4caaf29adda3eefee3ad552a8e85058589bf834c7466cae4ee58787f70589ed34600654426040516122d7939291906147e6565b60405180910390a2600560009054906101000a900473ffffffffffffffffffffffffffffffffffffffff1673ffffffffffffffffffffffffffffffffffffffff166108fc349081150290604051600060405180830381858888f19350505050158015612347573d6000803e3d6000fd5b50565b612358826000600184612d65565b5050565b6000600160008473ffffffffffffffffffffffffffffffffffffffff1673ffffffffffffffffffffffffffffffffffffffff16815260200190815260200160002060008373ffffffffffffffffffffffffffffffffffffffff1673ffffffffffffffffffffffffffffffffffffffff16815260200190815260200160002060009054906101000a900460ff16905092915050565b6000600190505b6008805490508110156124cb573373ffffffffffffffffffffffffffffffffffffffff1660088281548110612455577f4e487b7100000000000000000000000000000000000000000000000000000000600052603260045260246000fd5b906000526020600020906003020160000160009054906101000a900473ffffffffffffffffffffffffffffffffffffffff1673ffffffffffffffffffffffffffffffffffffffff1614156124af57806007819055506124b8565b60006007819055505b80806124c390614c66565b9150506123f7565b5060006007541415612512576040517f08c379a000000000000000000000000000000000000000000000000000000000815260040161250990614728565b60405180910390fd5b600e600081548092919061252590614c66565b9190505550601160405180608001604052808581526020018481526020018381526020013373ffffffffffffffffffffffffffffffffffffffff16815250908060018154018082558091505060019003906000526020600020906004020160009091909190915060008201518160000190805190602001906125a892919061362c565b50602082015181600101556040820151816002015560608201518160030160006101000a81548173ffffffffffffffffffffffffffffffffffffffff021916908373ffffffffffffffffffffffffffffffffffffffff1602179055505050600181106126a5576000600a60146101000a81548160ff0219169083600181111561265a577f4e487b7100000000000000000000000000000000000000000000000000000000600052602160045260246000fd5b02179055507f9538f37f3415699a7230042f74b18769944d69aed4a9324d06ac063ba9b0a406600e5484848433604051612698959493929190614763565b60405180910390a16126aa565b600080fd5b505050565b6126b76129fd565b73ffffffffffffffffffffffffffffffffffffffff168573ffffffffffffffffffffffffffffffffffffffff1614806126fd57506126fc856126f76129fd565b61235c565b5b61273c576040517f08c379a000000000000000000000000000000000000000000000000000000000815260040161273390614568565b60405180910390fd5b6127498585858585612efb565b5050505050565b600560009054906101000a900473ffffffffffffffffffffffffffffffffffffffff1681565b60007f01ffc9a7000000000000000000000000000000000000000000000000000000007bffffffffffffffffffffffffffffffffffffffffffffffffffffffff1916827bffffffffffffffffffffffffffffffffffffffffffffffffffffffff1916149050919050565b600073ffffffffffffffffffffffffffffffffffffffff168373ffffffffffffffffffffffffffffffffffffffff161415612850576040517f08c379a000000000000000000000000000000000000000000000000000000000815260040161284790614648565b60405180910390fd5b600061285a6129fd565b905061288a8185600061286c8761317d565b6128758761317d565b60405180602001604052806000815250613243565b600080600085815260200190815260200160002060008673ffffffffffffffffffffffffffffffffffffffff1673ffffffffffffffffffffffffffffffffffffffff16815260200190815260200160002054905082811015612921576040517f08c379a000000000000000000000000000000000000000000000000000000000815260040161291890614548565b60405180910390fd5b82810360008086815260200190815260200160002060008773ffffffffffffffffffffffffffffffffffffffff1673ffffffffffffffffffffffffffffffffffffffff16815260200190815260200160002081905550600073ffffffffffffffffffffffffffffffffffffffff168573ffffffffffffffffffffffffffffffffffffffff168373ffffffffffffffffffffffffffffffffffffffff167fc3d58168c5ae7397731d063d5bbf3d657854427343f4c083240f7aacaa2d0f6287876040516129ee9291906147bd565b60405180910390a45050505050565b600033905090565b8151835114612a49576040517f08c379a0000000000000000000000000000000000000000000000000000000008152600401612a40906146e8565b60405180910390fd5b600073ffffffffffffffffffffffffffffffffffffffff168473ffffffffffffffffffffffffffffffffffffffff161415612ab9576040517f08c379a0000000000000000000000000000000000000000000000000000000008152600401612ab0906145e8565b60405180910390fd5b6000612ac36129fd565b9050612ad3818787878787613243565b60005b8451811015612cd0576000858281518110612b1a577f4e487b7100000000000000000000000000000000000000000000000000000000600052603260045260246000fd5b602002602001015190506000858381518110612b5f577f4e487b7100000000000000000000000000000000000000000000000000000000600052603260045260246000fd5b60200260200101519050600080600084815260200190815260200160002060008b73ffffffffffffffffffffffffffffffffffffffff1673ffffffffffffffffffffffffffffffffffffffff16815260200190815260200160002054905081811015612c00576040517f08c379a0000000000000000000000000000000000000000000000000000000008152600401612bf790614668565b60405180910390fd5b81810360008085815260200190815260200160002060008c73ffffffffffffffffffffffffffffffffffffffff1673ffffffffffffffffffffffffffffffffffffffff168152602001908152602001600020819055508160008085815260200190815260200160002060008b73ffffffffffffffffffffffffffffffffffffffff1673ffffffffffffffffffffffffffffffffffffffff1681526020019081526020016000206000828254612cb59190614a21565b9250508190555050505080612cc990614c66565b9050612ad6565b508473ffffffffffffffffffffffffffffffffffffffff168673ffffffffffffffffffffffffffffffffffffffff168273ffffffffffffffffffffffffffffffffffffffff167f4a39dc06d4c0dbc64b70af90fd698a233a518aa5d07e595d983b8c0526c8f7fb8787604051612d479291906143c8565b60405180910390a4612d5d81878787878761324b565b505050505050565b600073ffffffffffffffffffffffffffffffffffffffff168473ffffffffffffffffffffffffffffffffffffffff161415612dd5576040517f08c379a0000000000000000000000000000000000000000000000000000000008152600401612dcc90614708565b60405180910390fd5b6000612ddf6129fd565b9050612e0081600087612df18861317d565b612dfa8861317d565b87613243565b8260008086815260200190815260200160002060008773ffffffffffffffffffffffffffffffffffffffff1673ffffffffffffffffffffffffffffffffffffffff1681526020019081526020016000206000828254612e5f9190614a21565b925050819055508473ffffffffffffffffffffffffffffffffffffffff16600073ffffffffffffffffffffffffffffffffffffffff168273ffffffffffffffffffffffffffffffffffffffff167fc3d58168c5ae7397731d063d5bbf3d657854427343f4c083240f7aacaa2d0f628787604051612edd9291906147bd565b60405180910390a4612ef481600087878787613432565b5050505050565b600073ffffffffffffffffffffffffffffffffffffffff168473ffffffffffffffffffffffffffffffffffffffff161415612f6b576040517f08c379a0000000000000000000000000000000000000000000000000000000008152600401612f62906145e8565b60405180910390fd5b6000612f756129fd565b9050612f95818787612f868861317d565b612f8f8861317d565b87613243565b600080600086815260200190815260200160002060008873ffffffffffffffffffffffffffffffffffffffff1673ffffffffffffffffffffffffffffffffffffffff1681526020019081526020016000205490508381101561302c576040517f08c379a000000000000000000000000000000000000000000000000000000000815260040161302390614668565b60405180910390fd5b83810360008087815260200190815260200160002060008973ffffffffffffffffffffffffffffffffffffffff1673ffffffffffffffffffffffffffffffffffffffff168152602001908152602001600020819055508360008087815260200190815260200160002060008873ffffffffffffffffffffffffffffffffffffffff1673ffffffffffffffffffffffffffffffffffffffff16815260200190815260200160002060008282546130e19190614a21565b925050819055508573ffffffffffffffffffffffffffffffffffffffff168773ffffffffffffffffffffffffffffffffffffffff168373ffffffffffffffffffffffffffffffffffffffff167fc3d58168c5ae7397731d063d5bbf3d657854427343f4c083240f7aacaa2d0f62888860405161315e9291906147bd565b60405180910390a4613174828888888888613432565b50505050505050565b60606000600167ffffffffffffffff8111156131c2577f4e487b7100000000000000000000000000000000000000000000000000000000600052604160045260246000fd5b6040519080825280602002602001820160405280156131f05781602001602082028036833780820191505090505b509050828160008151811061322e577f4e487b7100000000000000000000000000000000000000000000000000000000600052603260045260246000fd5b60200260200101818152505080915050919050565b505050505050565b61326a8473ffffffffffffffffffffffffffffffffffffffff16613619565b1561342a578373ffffffffffffffffffffffffffffffffffffffff1663bc197c8187878686866040518663ffffffff1660e01b81526004016132b09594939291906142e4565b602060405180830381600087803b1580156132ca57600080fd5b505af19250505080156132fb57506040513d601f19601f820116820180604052508101906132f89190613c83565b60015b6133a157613307614d6a565b806308c379a01415613364575061331c61540f565b806133275750613366565b806040517f08c379a000000000000000000000000000000000000000000000000000000000815260040161335b919061441a565b60405180910390fd5b505b6040517f08c379a000000000000000000000000000000000000000000000000000000000815260040161339890614488565b60405180910390fd5b63bc197c8160e01b7bffffffffffffffffffffffffffffffffffffffffffffffffffffffff1916817bffffffffffffffffffffffffffffffffffffffffffffffffffffffff191614613428576040517f08c379a000000000000000000000000000000000000000000000000000000000815260040161341f906144c8565b60405180910390fd5b505b505050505050565b6134518473ffffffffffffffffffffffffffffffffffffffff16613619565b15613611578373ffffffffffffffffffffffffffffffffffffffff1663f23a6e6187878686866040518663ffffffff1660e01b815260040161349795949392919061434c565b602060405180830381600087803b1580156134b157600080fd5b505af19250505080156134e257506040513d601f19601f820116820180604052508101906134df9190613c83565b60015b613588576134ee614d6a565b806308c379a0141561354b575061350361540f565b8061350e575061354d565b806040517f08c379a0000000000000000000000000000000000000000000000000000000008152600401613542919061441a565b60405180910390fd5b505b6040517f08c379a000000000000000000000000000000000000000000000000000000000815260040161357f90614488565b60405180910390fd5b63f23a6e6160e01b7bffffffffffffffffffffffffffffffffffffffffffffffffffffffff1916817bffffffffffffffffffffffffffffffffffffffffffffffffffffffff19161461360f576040517f08c379a0000000000000000000000000000000000000000000000000000000008152600401613606906144c8565b60405180910390fd5b505b505050505050565b600080823b905060008111915050919050565b82805461363890614c03565b90600052602060002090601f01602090048101928261365a57600085556136a1565b82601f1061367357805160ff19168380011785556136a1565b828001600101855582156136a1579182015b828111156136a0578251825591602001919060010190613685565b5b5090506136ae91906136b2565b5090565b5b808211156136cb5760008160009055506001016136b3565b5090565b60006136e26136dd846148f6565b6148d1565b9050808382526020820190508285602086028201111561370157600080fd5b60005b8581101561373157816137178882613823565b845260208401935060208301925050600181019050613704565b5050509392505050565b600061374e61374984614922565b6148d1565b9050808382526020820190508285602086028201111561376d57600080fd5b60005b8581101561379d57816137838882613934565b845260208401935060208301925050600181019050613770565b5050509392505050565b60006137ba6137b58461494e565b6148d1565b9050828152602081018484840111156137d257600080fd5b6137dd848285614bc1565b509392505050565b60006137f86137f38461497f565b6148d1565b90508281526020810184848401111561381057600080fd5b61381b848285614bc1565b509392505050565b600081359050613832816154a5565b92915050565b600081359050613847816154bc565b92915050565b600082601f83011261385e57600080fd5b813561386e8482602086016136cf565b91505092915050565b600082601f83011261388857600080fd5b813561389884826020860161373b565b91505092915050565b6000813590506138b0816154d3565b92915050565b6000813590506138c5816154ea565b92915050565b6000815190506138da816154ea565b92915050565b600082601f8301126138f157600080fd5b81356139018482602086016137a7565b91505092915050565b600082601f83011261391b57600080fd5b813561392b8482602086016137e5565b91505092915050565b60008135905061394381615501565b92915050565b6000806040838503121561395c57600080fd5b600061396a85828601613823565b925050602061397b85828601613823565b9150509250929050565b600080600080600060a0868803121561399d57600080fd5b60006139ab88828901613823565b95505060206139bc88828901613823565b945050604086013567ffffffffffffffff8111156139d957600080fd5b6139e588828901613877565b935050606086013567ffffffffffffffff811115613a0257600080fd5b613a0e88828901613877565b925050608086013567ffffffffffffffff811115613a2b57600080fd5b613a37888289016138e0565b9150509295509295909350565b600080600080600060a08688031215613a5c57600080fd5b6000613a6a88828901613823565b9550506020613a7b88828901613823565b9450506040613a8c88828901613934565b9350506060613a9d88828901613934565b925050608086013567ffffffffffffffff811115613aba57600080fd5b613ac6888289016138e0565b9150509295509295909350565b60008060408385031215613ae657600080fd5b6000613af485828601613823565b9250506020613b05858286016138a1565b9150509250929050565b60008060408385031215613b2257600080fd5b6000613b3085828601613823565b925050602083013567ffffffffffffffff811115613b4d57600080fd5b613b59858286016138e0565b9150509250929050565b60008060408385031215613b7657600080fd5b6000613b8485828601613823565b9250506020613b9585828601613934565b9150509250929050565b600080600060608486031215613bb457600080fd5b6000613bc286828701613823565b9350506020613bd386828701613934565b9250506040613be486828701613934565b9150509250925092565b60008060408385031215613c0157600080fd5b600083013567ffffffffffffffff811115613c1b57600080fd5b613c278582860161384d565b925050602083013567ffffffffffffffff811115613c4457600080fd5b613c5085828601613877565b9150509250929050565b600060208284031215613c6c57600080fd5b6000613c7a848285016138b6565b91505092915050565b600060208284031215613c9557600080fd5b6000613ca3848285016138cb565b91505092915050565b600080600060608486031215613cc157600080fd5b600084013567ffffffffffffffff811115613cdb57600080fd5b613ce78682870161390a565b9350506020613cf886828701613934565b9250506040613d0986828701613934565b9150509250925092565b600060208284031215613d2557600080fd5b6000613d3384828501613934565b91505092915050565b60008060408385031215613d4f57600080fd5b6000613d5d85828601613934565b9250506020613d6e85828601613838565b9150509250929050565b60008060408385031215613d8b57600080fd5b6000613d9985828601613934565b9250506020613daa85828601613934565b9150509250929050565b6000613dc083836141f1565b60208301905092915050565b613dd581614b8b565b82525050565b613de481614b17565b82525050565b613dfb613df682614b17565b614caf565b82525050565b613e0a81614b05565b82525050565b6000613e1b826149c0565b613e2581856149ee565b9350613e30836149b0565b8060005b83811015613e61578151613e488882613db4565b9750613e53836149e1565b925050600181019050613e34565b5085935050505092915050565b613e7781614b29565b82525050565b6000613e88826149cb565b613e9281856149ff565b9350613ea2818560208601614bd0565b613eab81614d8c565b840191505092915050565b6000613ec1826149d6565b613ecb8185614a10565b9350613edb818560208601614bd0565b613ee481614d8c565b840191505092915050565b6000613efc603483614a10565b9150613f0782614db7565b604082019050919050565b6000613f1f601b83614a10565b9150613f2a82614e06565b602082019050919050565b6000613f42602883614a10565b9150613f4d82614e2f565b604082019050919050565b6000613f65602f83614a10565b9150613f7082614e7e565b604082019050919050565b6000613f88602883614a10565b9150613f9382614ecd565b604082019050919050565b6000613fab602b83614a10565b9150613fb682614f1c565b604082019050919050565b6000613fce602483614a10565b9150613fd982614f6b565b604082019050919050565b6000613ff1602983614a10565b9150613ffc82614fba565b604082019050919050565b6000614014602283614a10565b915061401f82615009565b604082019050919050565b6000614037601583614a10565b915061404282615058565b602082019050919050565b600061405a602d83614a10565b915061406582615081565b604082019050919050565b600061407d602583614a10565b9150614088826150d0565b604082019050919050565b60006140a0603283614a10565b91506140ab8261511f565b604082019050919050565b60006140c3601283614a10565b91506140ce8261516e565b602082019050919050565b60006140e6602383614a10565b91506140f182615197565b604082019050919050565b6000614109602a83614a10565b9150614114826151e6565b604082019050919050565b600061412c602783614a10565b915061413782615235565b604082019050919050565b600061414f602983614a10565b915061415a82615284565b604082019050919050565b6000614172602983614a10565b915061417d826152d3565b604082019050919050565b6000614195602883614a10565b91506141a082615322565b604082019050919050565b60006141b8602183614a10565b91506141c382615371565b604082019050919050565b60006141db602483614a10565b91506141e6826153c0565b604082019050919050565b6141fa81614b81565b82525050565b61420981614b81565b82525050565b61422061421b82614b81565b614cd3565b82525050565b6000614232828c61420f565b602082019150614242828b61420f565b602082019150614252828a61420f565b602082019150614262828961420f565b602082019150614272828861420f565b602082019150614282828761420f565b6020820191506142928286613dea565b6014820191506142a28285613dea565b6014820191506142b2828461420f565b6020820191508190509a9950505050505050505050565b60006020820190506142de6000830184613ddb565b92915050565b600060a0820190506142f96000830188613e01565b6143066020830187613e01565b81810360408301526143188186613e10565b9050818103606083015261432c8185613e10565b905081810360808301526143408184613e7d565b90509695505050505050565b600060a0820190506143616000830188613e01565b61436e6020830187613e01565b61437b6040830186614200565b6143886060830185614200565b818103608083015261439a8184613e7d565b90509695505050505050565b600060208201905081810360008301526143c08184613e10565b905092915050565b600060408201905081810360008301526143e28185613e10565b905081810360208301526143f68184613e10565b90509392505050565b60006020820190506144146000830184613e6e565b92915050565b600060208201905081810360008301526144348184613eb6565b905092915050565b600060808201905081810360008301526144568187613eb6565b90506144656020830186614200565b6144726040830185614200565b61447f6060830184613ddb565b95945050505050565b600060208201905081810360008301526144a181613eef565b9050919050565b600060208201905081810360008301526144c181613f12565b9050919050565b600060208201905081810360008301526144e181613f35565b9050919050565b6000602082019050818103600083015261450181613f58565b9050919050565b6000602082019050818103600083015261452181613f7b565b9050919050565b6000602082019050818103600083015261454181613f9e565b9050919050565b6000602082019050818103600083015261456181613fc1565b9050919050565b6000602082019050818103600083015261458181613fe4565b9050919050565b600060208201905081810360008301526145a181614007565b9050919050565b600060208201905081810360008301526145c18161402a565b9050919050565b600060208201905081810360008301526145e18161404d565b9050919050565b6000602082019050818103600083015261460181614070565b9050919050565b6000602082019050818103600083015261462181614093565b9050919050565b60006020820190508181036000830152614641816140b6565b9050919050565b60006020820190508181036000830152614661816140d9565b9050919050565b60006020820190508181036000830152614681816140fc565b9050919050565b600060208201905081810360008301526146a18161411f565b9050919050565b600060208201905081810360008301526146c181614142565b9050919050565b600060208201905081810360008301526146e181614165565b9050919050565b6000602082019050818103600083015261470181614188565b9050919050565b60006020820190508181036000830152614721816141ab565b9050919050565b60006020820190508181036000830152614741816141ce565b9050919050565b600060208201905061475d6000830184614200565b92915050565b600060a0820190506147786000830188614200565b818103602083015261478a8187613eb6565b90506147996040830186614200565b6147a66060830185614200565b6147b36080830184613e01565b9695505050505050565b60006040820190506147d26000830185614200565b6147df6020830184614200565b9392505050565b60006060820190506147fb6000830186614200565b6148086020830185614200565b6148156040830184614200565b949350505050565b600060a0820190506148326000830188614200565b61483f6020830187614200565b61484c6040830186614200565b6148596060830185613ddb565b6148666080830184613ddb565b9695505050505050565b600060c0820190506148856000830189614200565b6148926020830188614200565b61489f6040830187614200565b6148ac6060830186614200565b6148b96080830185613e01565b6148c660a0830184613dcc565b979650505050505050565b60006148db6148ec565b90506148e78282614c35565b919050565b6000604051905090565b600067ffffffffffffffff82111561491157614910614d3b565b5b602082029050602081019050919050565b600067ffffffffffffffff82111561493d5761493c614d3b565b5b602082029050602081019050919050565b600067ffffffffffffffff82111561496957614968614d3b565b5b61497282614d8c565b9050602081019050919050565b600067ffffffffffffffff82111561499a57614999614d3b565b5b6149a382614d8c565b9050602081019050919050565b6000819050602082019050919050565b600081519050919050565b600081519050919050565b600081519050919050565b6000602082019050919050565b600082825260208201905092915050565b600082825260208201905092915050565b600082825260208201905092915050565b6000614a2c82614b81565b9150614a3783614b81565b9250827fffffffffffffffffffffffffffffffffffffffffffffffffffffffffffffffff03821115614a6c57614a6b614cdd565b5b828201905092915050565b6000614a8282614b81565b9150614a8d83614b81565b9250817fffffffffffffffffffffffffffffffffffffffffffffffffffffffffffffffff0483118215151615614ac657614ac5614cdd565b5b828202905092915050565b6000614adc82614b81565b9150614ae783614b81565b925082821015614afa57614af9614cdd565b5b828203905092915050565b6000614b1082614b61565b9050919050565b6000614b2282614b61565b9050919050565b60008115159050919050565b60007fffffffff0000000000000000000000000000000000000000000000000000000082169050919050565b600073ffffffffffffffffffffffffffffffffffffffff82169050919050565b6000819050919050565b6000614b9682614b9d565b9050919050565b6000614ba882614baf565b9050919050565b6000614bba82614b61565b9050919050565b82818337600083830152505050565b60005b83811015614bee578082015181840152602081019050614bd3565b83811115614bfd576000848401525b50505050565b60006002820490506001821680614c1b57607f821691505b60208210811415614c2f57614c2e614d0c565b5b50919050565b614c3e82614d8c565b810181811067ffffffffffffffff82111715614c5d57614c5c614d3b565b5b80604052505050565b6000614c7182614b81565b91507fffffffffffffffffffffffffffffffffffffffffffffffffffffffffffffffff821415614ca457614ca3614cdd565b5b600182019050919050565b6000614cba82614cc1565b9050919050565b6000614ccc82614d9d565b9050919050565b6000819050919050565b7f4e487b7100000000000000000000000000000000000000000000000000000000600052601160045260246000fd5b7f4e487b7100000000000000000000000000000000000000000000000000000000600052602260045260246000fd5b7f4e487b7100000000000000000000000000000000000000000000000000000000600052604160045260246000fd5b600060033d1115614d895760046000803e614d86600051614daa565b90505b90565b6000601f19601f8301169050919050565b60008160601b9050919050565b60008160e01c9050919050565b7f455243313135353a207472616e7366657220746f206e6f6e204552433131353560008201527f526563656976657220696d706c656d656e746572000000000000000000000000602082015250565b7f506c65617365207061792074686520657861637420616d6f756e740000000000600082015250565b7f455243313135353a204552433131353552656365697665722072656a6563746560008201527f6420746f6b656e73000000000000000000000000000000000000000000000000602082015250565b7f54686973206973206e6f742061206275796572206f722073656c6c6572206f6660008201527f20746869732070726f6475637421210000000000000000000000000000000000602082015250565b7f596f7520617265206e6f74207468652073656c6c6572206f662074686973207060008201527f726f647563742121000000000000000000000000000000000000000000000000602082015250565b7f455243313135353a2062616c616e636520717565727920666f7220746865207a60008201527f65726f2061646472657373000000000000000000000000000000000000000000602082015250565b7f455243313135353a206275726e20616d6f756e7420657863656564732062616c60008201527f616e636500000000000000000000000000000000000000000000000000000000602082015250565b7f455243313135353a2063616c6c6572206973206e6f74206f776e6572206e6f7260008201527f20617070726f7665640000000000000000000000000000000000000000000000602082015250565b7f54686973207472616e73616374696f6e206973206e6f7420646973707574656460008201527f2121000000000000000000000000000000000000000000000000000000000000602082015250565b7f596f7520617265206e6f7420746865206f776e65720000000000000000000000600082015250565b7f506c65617365207374616b65206d6f7265207468616e206f7220657175616c2060008201527f746f20302e303520657468657200000000000000000000000000000000000000602082015250565b7f455243313135353a207472616e7366657220746f20746865207a65726f20616460008201527f6472657373000000000000000000000000000000000000000000000000000000602082015250565b7f455243313135353a207472616e736665722063616c6c6572206973206e6f742060008201527f6f776e6572206e6f7220617070726f7665640000000000000000000000000000602082015250565b7f596f7520617265207468652073656c6c65720000000000000000000000000000600082015250565b7f455243313135353a206275726e2066726f6d20746865207a65726f206164647260008201527f6573730000000000000000000000000000000000000000000000000000000000602082015250565b7f455243313135353a20696e73756666696369656e742062616c616e636520666f60008201527f72207472616e7366657200000000000000000000000000000000000000000000602082015250565b7f596f7520617265206e6f7420746865206275796572206f66207468697320707260008201527f6f64756374212100000000000000000000000000000000000000000000000000602082015250565b7f455243313135353a2073657474696e6720617070726f76616c2073746174757360008201527f20666f722073656c660000000000000000000000000000000000000000000000602082015250565b7f455243313135353a206163636f756e747320616e6420696473206c656e67746860008201527f206d69736d617463680000000000000000000000000000000000000000000000602082015250565b7f455243313135353a2069647320616e6420616d6f756e7473206c656e6774682060008201527f6d69736d61746368000000000000000000000000000000000000000000000000602082015250565b7f455243313135353a206d696e7420746f20746865207a65726f2061646472657360008201527f7300000000000000000000000000000000000000000000000000000000000000602082015250565b7f596f75206861766520746f207374616b65206d696e696d756d20302e3035206560008201527f7468657200000000000000000000000000000000000000000000000000000000602082015250565b600060443d101561541f576154a2565b6154276148ec565b60043d036004823e80513d602482011167ffffffffffffffff8211171561544f5750506154a2565b808201805167ffffffffffffffff81111561546d57505050506154a2565b80602083010160043d03850181111561548a5750505050506154a2565b61549982602001850186614c35565b82955050505050505b90565b6154ae81614b05565b81146154b957600080fd5b50565b6154c581614b17565b81146154d057600080fd5b50565b6154dc81614b29565b81146154e757600080fd5b50565b6154f381614b35565b81146154fe57600080fd5b50565b61550a81614b81565b811461551557600080fd5b5056fea26469706673582212204bae75cefeed1b7830265b2408624b8d480f1fa76a7c113431bc70827936b33264736f6c6343000801003368747470733a2f2f75766f6a3238716e6839646a2e6d6f72616c6973686f73742e636f6d2f7b69647d2e6a736f6e",
  "immutableReferences": {},
  "source": "// SPDX-License-Identifier: MIT\npragma solidity ^0.8.0;\nimport \"./NFT.sol\";\nimport \"./Stakable.sol\";\n\ncontract Marketplace is NFT, Stakable{\n   \n   address payable public Owner;\n   enum status{Available, Sold}\n   status currentStatus;\n   string xyz;\n  \n   enum orderStatus{OrderPlaced, OrderCancelled, OrderConfirmed, Dispatched, Disputed}\n   orderStatus OrderStatus;\n   uint public receiptId;\n   uint public productId;\n   address payable burn =payable(0x000000000000000000000000000000000000dEaD);\n   \n   constructor() {\n       Owner= payable(msg.sender);\n       Receipts.push(receipt(0,0,0,burn,burn));\n       Products.push(product(xyz, 0,0, burn));\n   }\n   \n   struct product{\n       string name;\n       uint price;        // price per item\n       uint quantity;\n       address payable seller;\n     \n   }\n   //mapping (uint=>product) public Product;\n   event newProduct(uint productId, string name, uint price, uint quantity, address seller);\n   struct receipt{\n       uint productId;\n       uint quantity;\n       uint totalCost;\n       address payable buyer;\n       address payable seller;\n       \n   }\n   //mapping(uint=>receipt) public Receipt;\n   event newOrder(uint receiptId,uint productId,uint quantity, uint totalCost, address buyer,address seller);\n   receipt[] public Receipts;\n   product[] public Products;\n\n       \n   \n   modifier notSellor(uint _productId){\n       require (msg.sender != Products[_productId].seller, \"You are the seller\");\n       _;\n   }\n   \n   modifier cost(uint _price, uint _quantity){\n       require (msg.value==_price*_quantity,  \"Please pay the exact amount\");\n       _;\n   }\n   \n   modifier onlyBuyer(uint _receiptId){\n       require(Receipts[_receiptId].buyer==msg.sender, \"You are not the buyer of this product!!\");\n       _;\n   }\n   \n    modifier onlySeller(uint _receiptId){\n       require(Receipts[_receiptId].seller==msg.sender, \"You are not the seller of this product!!\");\n       _;\n   }\n   modifier onlyOwner(){\n       require (msg.sender == Owner, \"You are not the owner\");\n       _;\n   }\n    \n   \n    function listItem(string memory _name, uint _price, uint _quantity) external payable onlyStakers {\n         productId++;\n         Products.push(product(_name, _price, _quantity, payable(msg.sender)));\n         if (_quantity>=1){\n             currentStatus = status.Available;\n             emit newProduct(productId, _name, _price, _quantity, msg.sender);\n         }\n         else\n         revert();\n          \n    }  \n   \n   function buy(uint _productId, uint _quantity) external payable notSellor(_productId) cost(Products[_productId].price, _quantity) onlyStakers{\n       require (currentStatus== status.Available);\n       Products[_productId].quantity-=_quantity;\n       OrderStatus= orderStatus.OrderPlaced;\n       uint _totalCost= Products[_productId].price*_quantity;\n       receiptId++;\n       Receipts.push(receipt(_productId, _quantity, _totalCost, payable(msg.sender),Products[_productId].seller));\n       emit newOrder(receiptId, _productId, _quantity, Products[_productId].price*_quantity, msg.sender, Products[_productId].seller);\n       \n       \n   }\n   \n   function orderAccept(uint _receiptId) external payable onlySeller(_receiptId){\n       \n           OrderStatus=orderStatus.OrderConfirmed;\n       }\n    \n   function orderReject(uint _receiptId) external payable onlySeller(_receiptId){\n       \n           OrderStatus=orderStatus.OrderCancelled;\n           Receipts[_receiptId].buyer.transfer(Receipts[_receiptId].totalCost);\n       }\n   \n   function itemDelivered(uint _receiptId) public onlyBuyer(_receiptId) {\n       Receipts[_receiptId].seller.transfer(Receipts[_receiptId].totalCost);\n       bytes memory packedDescription= abi.encodePacked(block.timestamp, _receiptId, block.difficulty, Receipts[_receiptId].productId, Receipts[_receiptId].quantity, Receipts[_receiptId].totalCost, Receipts[_receiptId].buyer, Receipts[_receiptId].seller, Receipts.length);\n       mintNFT(msg.sender, packedDescription);\n       mintNFT(Receipts[_receiptId].seller, packedDescription);\n   }\n   \n  function dispute(uint _receiptId) external payable {\n      require(msg.sender==Receipts[_receiptId].buyer||msg.sender==Receipts[_receiptId].seller);\n      OrderStatus=orderStatus.Disputed;\n       \n  }\n   \n    function resolve(uint _receiptId, address payable _justice) public payable onlyOwner {\n      require (_justice==Receipts[_receiptId].buyer||_justice==Receipts[_receiptId].seller, \"This is not a buyer or seller of this product!!\");\n      require (OrderStatus==orderStatus.Disputed, \"This transaction is not disputed!!\");      \n      _justice.transfer(Receipts[_receiptId].totalCost);\n    }\n    \n    \n}",
  "sourcePath": "/home/champ/Desktop/hackathon/BuyOnChain/contracts/Marketplace.sol",
  "compiler": {
    "name": "solc",
    "version": "0.8.1+commit.df193b15.Emscripten.clang"
  },
  "schemaVersion": "3.4.3",
  "updatedAt": "2021-10-07T03:58:52.850Z",
  "networkType": "ethereum",
  "devdoc": {
    "kind": "dev",
    "methods": {
      "balanceOf(address,uint256)": {
        "details": "See {IERC1155-balanceOf}. Requirements: - `account` cannot be the zero address."
      },
      "balanceOfBatch(address[],uint256[])": {
        "details": "See {IERC1155-balanceOfBatch}. Requirements: - `accounts` and `ids` must have the same length."
      },
      "isApprovedForAll(address,address)": {
        "details": "See {IERC1155-isApprovedForAll}."
      },
      "safeBatchTransferFrom(address,address,uint256[],uint256[],bytes)": {
        "details": "See {IERC1155-safeBatchTransferFrom}."
      },
      "safeTransferFrom(address,address,uint256,uint256,bytes)": {
        "details": "See {IERC1155-safeTransferFrom}."
      },
      "setApprovalForAll(address,bool)": {
        "details": "See {IERC1155-setApprovalForAll}."
      },
      "supportsInterface(bytes4)": {
        "details": "See {IERC165-supportsInterface}."
      },
      "uri(uint256)": {
        "details": "See {IERC1155MetadataURI-uri}. This implementation returns the same URI for *all* token types. It relies on the token type ID substitution mechanism https://eips.ethereum.org/EIPS/eip-1155#metadata[defined in the EIP]. Clients calling this function must replace the `\\{id\\}` substring with the actual token type ID."
      }
    },
    "version": 1
  },
  "userdoc": {
    "events": {
      "Staked(address,uint256,uint256,uint256)": {
        "notice": "Staked event is triggered whenever a user stakes tokens, address is indexed to make it filterable"
      }
    },
    "kind": "user",
    "methods": {},
    "version": 1
  }
}