{
  "contractName": "Stakable",
  "abi": [
    {
      "inputs": [],
      "stateMutability": "nonpayable",
      "type": "constructor"
    },
    {
      "anonymous": false,
      "inputs": [
        {
          "indexed": true,
          "internalType": "address",
          "name": "user",
          "type": "address"
        },
        {
          "indexed": false,
          "internalType": "uint256",
          "name": "amount",
          "type": "uint256"
        },
        {
          "indexed": false,
          "internalType": "uint256",
          "name": "index",
          "type": "uint256"
        },
        {
          "indexed": false,
          "internalType": "uint256",
          "name": "timestamp",
          "type": "uint256"
        }
      ],
      "name": "Staked",
      "type": "event"
    },
    {
      "inputs": [],
      "name": "Admin",
      "outputs": [
        {
          "internalType": "address payable",
          "name": "",
          "type": "address"
        }
      ],
      "stateMutability": "view",
      "type": "function",
      "constant": true
    },
    {
      "inputs": [],
      "name": "Stake",
      "outputs": [],
      "stateMutability": "payable",
      "type": "function",
      "payable": true
    }
  ],
  "bytecode": "0x608060405261dead6000806101000a81548173ffffffffffffffffffffffffffffffffffffffff021916908373ffffffffffffffffffffffffffffffffffffffff16021790555034801561005257600080fd5b506004604051806060016040528060008054906101000a900473ffffffffffffffffffffffffffffffffffffffff1673ffffffffffffffffffffffffffffffffffffffff1681526020016000815260200142815250908060018154018082558091505060019003906000526020600020906003020160009091909190915060008201518160000160006101000a81548173ffffffffffffffffffffffffffffffffffffffff021916908373ffffffffffffffffffffffffffffffffffffffff1602179055506020820151816001015560408201518160020155505033600160006101000a81548173ffffffffffffffffffffffffffffffffffffffff021916908373ffffffffffffffffffffffffffffffffffffffff1602179055506104608061017d6000396000f3fe6080604052600436106100295760003560e01c8063de20bc921461002e578063ff1b636d14610038575b600080fd5b610036610063565b005b34801561004457600080fd5b5061004d61023d565b60405161005a91906102a4565b60405180910390f35b66b1a2bc2ec500003410156100ad576040517f08c379a00000000000000000000000000000000000000000000000000000000081526004016100a4906102bf565b60405180910390fd5b600260008154809291906100c090610363565b9190505550600460405180606001604052803373ffffffffffffffffffffffffffffffffffffffff16815260200134815260200142815250908060018154018082558091505060019003906000526020600020906003020160009091909190915060008201518160000160006101000a81548173ffffffffffffffffffffffffffffffffffffffff021916908373ffffffffffffffffffffffffffffffffffffffff160217905550602082015181600101556040820151816002015550503373ffffffffffffffffffffffffffffffffffffffff167fb4caaf29adda3eefee3ad552a8e85058589bf834c7466cae4ee58787f70589ed34600254426040516101ca939291906102df565b60405180910390a2600160009054906101000a900473ffffffffffffffffffffffffffffffffffffffff1673ffffffffffffffffffffffffffffffffffffffff166108fc349081150290604051600060405180830381858888f1935050505015801561023a573d6000803e3d6000fd5b50565b600160009054906101000a900473ffffffffffffffffffffffffffffffffffffffff1681565b61026c81610327565b82525050565b600061027f602d83610316565b915061028a826103db565b604082019050919050565b61029e81610359565b82525050565b60006020820190506102b96000830184610263565b92915050565b600060208201905081810360008301526102d881610272565b9050919050565b60006060820190506102f46000830186610295565b6103016020830185610295565b61030e6040830184610295565b949350505050565b600082825260208201905092915050565b600061033282610339565b9050919050565b600073ffffffffffffffffffffffffffffffffffffffff82169050919050565b6000819050919050565b600061036e82610359565b91507fffffffffffffffffffffffffffffffffffffffffffffffffffffffffffffffff8214156103a1576103a06103ac565b5b600182019050919050565b7f4e487b7100000000000000000000000000000000000000000000000000000000600052601160045260246000fd5b7f506c65617365207374616b65206d6f7265207468616e206f7220657175616c2060008201527f746f20302e30352065746865720000000000000000000000000000000000000060208201525056fea264697066735822122045f2ac98c655c047b26d3caf36e3455966dd6927d959c7e8784763580bfc782064736f6c63430008010033",
  "immutableReferences": {},
  "source": "// SPDX-License-Identifier: MIT\npragma solidity ^0.8.0;\n\n contract Stakable{\n     \n      address payable Burn = payable(0x000000000000000000000000000000000000dEaD);\n      \n      address payable public Admin;\n      uint256 userIndex;\n      uint256 yes;\n      \n   \n    constructor() {\n        stakeHolders.push(stake(Burn, 0, block.timestamp ));\n        Admin= payable(msg.sender);\n    }\n    /**\n     * @notice\n     * A stake struct is used to represent the way we store stakes, \n     * A Stake will contain the users address, the amount staked and a timestamp, \n     * Since which is when the stake was made\n     */\n    struct stake{\n        address user;\n        uint256 amount;\n        uint256 since;\n    }\n    \n    stake[] private stakeHolders;\n   \n    mapping(address => uint256) internal stakes;\n    modifier minAmount(){\n        require(msg.value>=0.05 ether, \"Please stake more than or equal to 0.05 ether\");\n        _;\n    }\n     \n    modifier onlyStakers(){\n        for (uint256 i=1; i<stakeHolders.length; i++){\n            if(stakeHolders[i].user==msg.sender){\n                yes=i;\n            }\n            else\n            yes=0;\n        }\n        require(yes!=0, \"You have to stake minimum 0.05 ether\");\n        _;\n    }\n    \n    \n\n    /**\n    * @notice Staked event is triggered whenever a user stakes tokens, address is indexed to make it filterable\n     */\n    event Staked(address indexed user, uint256 amount, uint256 index, uint256 timestamp);\n   \n    function Stake() public payable minAmount {\n        userIndex++;\n        stakeHolders.push(stake(msg.sender, msg.value, block.timestamp));\n        \n        emit Staked(msg.sender, msg.value, userIndex, block.timestamp); \n        Admin.transfer(msg.value);\n    }\n    \n }",
  "sourcePath": "/home/champ/Desktop/hackathon/BuyOnChain/contracts/Stakable.sol",
  "compiler": {
    "name": "solc",
    "version": "0.8.1+commit.df193b15.Emscripten.clang"
  },
  "schemaVersion": "3.4.3",
  "updatedAt": "2021-10-07T04:01:22.496Z",
  "networkType": "ethereum",
  "devdoc": {
    "kind": "dev",
    "methods": {},
    "version": 1
  },
  "userdoc": {
    "events": {
      "Staked(address,uint256,uint256,uint256)": {
        "notice": "Staked event is triggered whenever a user stakes tokens, address is indexed to make it filterable"
      }
    },
    "kind": "user",
    "methods": {},
    "version": 1
  }
}